{
  "_format": "hh-sol-artifact-1",
  "contractName": "PumpFun",
  "sourceName": "contracts/PumpFun.sol",
  "abi": [
    {
      "inputs": [
        {
          "internalType": "string",
          "name": "name",
          "type": "string"
        },
        {
          "internalType": "string",
          "name": "symbol",
          "type": "string"
        },
        {
          "internalType": "address",
          "name": "_events",
          "type": "address"
        },
        {
          "internalType": "address",
          "name": "creator",
          "type": "address"
        }
      ],
      "stateMutability": "payable",
      "type": "constructor"
    },
    {
      "inputs": [
        {
          "internalType": "address",
          "name": "spender",
          "type": "address"
        },
        {
          "internalType": "uint256",
          "name": "allowance",
          "type": "uint256"
        },
        {
          "internalType": "uint256",
          "name": "needed",
          "type": "uint256"
        }
      ],
      "name": "ERC20InsufficientAllowance",
      "type": "error"
    },
    {
      "inputs": [
        {
          "internalType": "address",
          "name": "sender",
          "type": "address"
        },
        {
          "internalType": "uint256",
          "name": "balance",
          "type": "uint256"
        },
        {
          "internalType": "uint256",
          "name": "needed",
          "type": "uint256"
        }
      ],
      "name": "ERC20InsufficientBalance",
      "type": "error"
    },
    {
      "inputs": [
        {
          "internalType": "address",
          "name": "approver",
          "type": "address"
        }
      ],
      "name": "ERC20InvalidApprover",
      "type": "error"
    },
    {
      "inputs": [
        {
          "internalType": "address",
          "name": "receiver",
          "type": "address"
        }
      ],
      "name": "ERC20InvalidReceiver",
      "type": "error"
    },
    {
      "inputs": [
        {
          "internalType": "address",
          "name": "sender",
          "type": "address"
        }
      ],
      "name": "ERC20InvalidSender",
      "type": "error"
    },
    {
      "inputs": [
        {
          "internalType": "address",
          "name": "spender",
          "type": "address"
        }
      ],
      "name": "ERC20InvalidSpender",
      "type": "error"
    },
    {
      "inputs": [],
      "name": "ReentrancyGuardReentrantCall",
      "type": "error"
    },
    {
      "anonymous": false,
      "inputs": [
        {
          "indexed": true,
          "internalType": "address",
          "name": "owner",
          "type": "address"
        },
        {
          "indexed": true,
          "internalType": "address",
          "name": "spender",
          "type": "address"
        },
        {
          "indexed": false,
          "internalType": "uint256",
          "name": "value",
          "type": "uint256"
        }
      ],
      "name": "Approval",
      "type": "event"
    },
    {
      "anonymous": false,
      "inputs": [
        {
          "indexed": true,
          "internalType": "address",
          "name": "from",
          "type": "address"
        },
        {
          "indexed": true,
          "internalType": "address",
          "name": "to",
          "type": "address"
        },
        {
          "indexed": false,
          "internalType": "uint256",
          "name": "value",
          "type": "uint256"
        }
      ],
      "name": "Transfer",
      "type": "event"
    },
    {
      "anonymous": false,
      "inputs": [
        {
          "indexed": false,
          "internalType": "uint256",
          "name": "amount",
          "type": "uint256"
        },
        {
          "indexed": false,
          "internalType": "uint256",
          "name": "when",
          "type": "uint256"
        }
      ],
      "name": "Withdrawal",
      "type": "event"
    },
    {
      "inputs": [],
      "name": "FEE_PERCENTAGE",
      "outputs": [
        {
          "internalType": "uint256",
          "name": "",
          "type": "uint256"
        }
      ],
      "stateMutability": "view",
      "type": "function"
    },
    {
      "inputs": [],
      "name": "MAX_ETH_AMOUNT",
      "outputs": [
        {
          "internalType": "uint256",
          "name": "",
          "type": "uint256"
        }
      ],
      "stateMutability": "view",
      "type": "function"
    },
    {
      "inputs": [],
      "name": "MAX_SUPPLY",
      "outputs": [
        {
          "internalType": "uint256",
          "name": "",
          "type": "uint256"
        }
      ],
      "stateMutability": "view",
      "type": "function"
    },
    {
      "inputs": [
        {
          "internalType": "address",
          "name": "owner",
          "type": "address"
        },
        {
          "internalType": "address",
          "name": "spender",
          "type": "address"
        }
      ],
      "name": "allowance",
      "outputs": [
        {
          "internalType": "uint256",
          "name": "",
          "type": "uint256"
        }
      ],
      "stateMutability": "view",
      "type": "function"
    },
    {
      "inputs": [
        {
          "internalType": "address",
          "name": "spender",
          "type": "address"
        },
        {
          "internalType": "uint256",
          "name": "value",
          "type": "uint256"
        }
      ],
      "name": "approve",
      "outputs": [
        {
          "internalType": "bool",
          "name": "",
          "type": "bool"
        }
      ],
      "stateMutability": "nonpayable",
      "type": "function"
    },
    {
      "inputs": [
        {
          "internalType": "address",
          "name": "account",
          "type": "address"
        }
      ],
      "name": "balanceOf",
      "outputs": [
        {
          "internalType": "uint256",
          "name": "",
          "type": "uint256"
        }
      ],
      "stateMutability": "view",
      "type": "function"
    },
    {
      "inputs": [],
      "name": "buy",
      "outputs": [],
      "stateMutability": "payable",
      "type": "function"
    },
    {
      "inputs": [
        {
          "internalType": "uint256",
          "name": "tokenAmount",
          "type": "uint256"
        }
      ],
      "name": "calculateEthAmount",
      "outputs": [
        {
          "internalType": "uint256",
          "name": "",
          "type": "uint256"
        }
      ],
      "stateMutability": "view",
      "type": "function"
    },
    {
      "inputs": [
        {
          "internalType": "uint256",
          "name": "buyEthAmount",
          "type": "uint256"
        }
      ],
      "name": "calculateTokenAmount",
      "outputs": [
        {
          "internalType": "uint256",
          "name": "",
          "type": "uint256"
        }
      ],
      "stateMutability": "view",
      "type": "function"
    },
    {
      "inputs": [],
      "name": "decimals",
      "outputs": [
        {
          "internalType": "uint8",
          "name": "",
          "type": "uint8"
        }
      ],
      "stateMutability": "view",
      "type": "function"
    },
    {
      "inputs": [],
      "name": "ethAmount",
      "outputs": [
        {
          "internalType": "uint256",
          "name": "",
          "type": "uint256"
        }
      ],
      "stateMutability": "view",
      "type": "function"
    },
    {
      "inputs": [],
      "name": "events",
      "outputs": [
        {
          "internalType": "contract IEvents",
          "name": "",
          "type": "address"
        }
      ],
      "stateMutability": "view",
      "type": "function"
    },
    {
      "inputs": [],
      "name": "factory",
      "outputs": [
        {
          "internalType": "contract IFactory",
          "name": "",
          "type": "address"
        }
      ],
      "stateMutability": "view",
      "type": "function"
    },
    {
      "inputs": [],
      "name": "getCurrentTokenPrice",
      "outputs": [
        {
          "internalType": "uint256",
          "name": "",
          "type": "uint256"
        }
      ],
      "stateMutability": "view",
      "type": "function"
    },
    {
      "inputs": [],
      "name": "getMaxEthToBuy",
      "outputs": [
        {
          "internalType": "uint256",
          "name": "",
          "type": "uint256"
        }
      ],
      "stateMutability": "view",
      "type": "function"
    },
    {
      "inputs": [],
      "name": "isPaused",
      "outputs": [
        {
          "internalType": "bool",
          "name": "",
          "type": "bool"
        }
      ],
      "stateMutability": "view",
      "type": "function"
    },
    {
      "inputs": [],
      "name": "name",
      "outputs": [
        {
          "internalType": "string",
          "name": "",
          "type": "string"
        }
      ],
      "stateMutability": "view",
      "type": "function"
    },
    {
      "inputs": [
        {
          "internalType": "address",
          "name": "operator",
          "type": "address"
        },
        {
          "internalType": "address",
          "name": "from",
          "type": "address"
        },
        {
          "internalType": "uint256",
          "name": "tokenId",
          "type": "uint256"
        },
        {
          "internalType": "bytes",
          "name": "data",
          "type": "bytes"
        }
      ],
      "name": "onERC721Received",
      "outputs": [
        {
          "internalType": "bytes4",
          "name": "",
          "type": "bytes4"
        }
      ],
      "stateMutability": "nonpayable",
      "type": "function"
    },
    {
      "inputs": [],
      "name": "owner",
      "outputs": [
        {
          "internalType": "address payable",
          "name": "",
          "type": "address"
        }
      ],
      "stateMutability": "view",
      "type": "function"
    },
    {
      "inputs": [
        {
          "internalType": "uint256",
          "name": "amount",
          "type": "uint256"
        }
      ],
      "name": "sell",
      "outputs": [],
      "stateMutability": "nonpayable",
      "type": "function"
    },
    {
      "inputs": [],
      "name": "symbol",
      "outputs": [
        {
          "internalType": "string",
          "name": "",
          "type": "string"
        }
      ],
      "stateMutability": "view",
      "type": "function"
    },
    {
      "inputs": [],
      "name": "tokensSold",
      "outputs": [
        {
          "internalType": "uint256",
          "name": "",
          "type": "uint256"
        }
      ],
      "stateMutability": "view",
      "type": "function"
    },
    {
      "inputs": [],
      "name": "totalSupply",
      "outputs": [
        {
          "internalType": "uint256",
          "name": "",
          "type": "uint256"
        }
      ],
      "stateMutability": "view",
      "type": "function"
    },
    {
      "inputs": [
        {
          "internalType": "address",
          "name": "to",
          "type": "address"
        },
        {
          "internalType": "uint256",
          "name": "value",
          "type": "uint256"
        }
      ],
      "name": "transfer",
      "outputs": [
        {
          "internalType": "bool",
          "name": "",
          "type": "bool"
        }
      ],
      "stateMutability": "nonpayable",
      "type": "function"
    },
    {
      "inputs": [
        {
          "internalType": "address",
          "name": "from",
          "type": "address"
        },
        {
          "internalType": "address",
          "name": "to",
          "type": "address"
        },
        {
          "internalType": "uint256",
          "name": "value",
          "type": "uint256"
        }
      ],
      "name": "transferFrom",
      "outputs": [
        {
          "internalType": "bool",
          "name": "",
          "type": "bool"
        }
      ],
      "stateMutability": "nonpayable",
      "type": "function"
    }
  ],
  "bytecode": "0x6080604052604051620036453803806200364583398101604081905262000026916200122f565b8383600362000036838262001346565b50600462000045828262001346565b5050600160055550600780546001600160a01b0384166001600160a01b03199182161790915560088054909116331790556200008e306b033b2e3c9fd0803ce8000000620000ab565b3415620000a157620000a18134620000f3565b5050505062001613565b6001600160a01b038216620000e157600060405163ec442f0560e01b8152600401620000d8919062001412565b60405180910390fd5b620000ef600083836200048d565b5050565b600754600160a01b900460ff16156200014f5760405162461bcd60e51b815260206004820152601960248201527f426f6e64696e6720637572766520706861736520656e646564000000000000006044820152606401620000d8565b60006064620001606001846200143c565b6200016c91906200146c565b90506000600860009054906101000a90046001600160a01b03166001600160a01b031663b3f006746040518163ffffffff1660e01b8152600401602060405180830381865afa158015620001c4573d6000803e3d6000fd5b505050506040513d601f19601f82011682018060405250810190620001ea91906200148f565b6001600160a01b03168260405160006040518083038185875af1925050503d806000811462000236576040519150601f19603f3d011682016040523d82523d6000602084013e6200023b565b606091505b5050905080620002995760405162461bcd60e51b815260206004820152602260248201527f466565207472616e7366657220746f206665655265636569766572206661696c604482015261195960f21b6064820152608401620000d8565b6000620002a78385620014ad565b90506000620002b6826200050f565b905081600a6000828254620002cc9190620014c3565b9091555050600a5467d02ab486cedc000010156200032d5760405162461bcd60e51b815260206004820152601660248201527f4d61782045544820616d6f756e742072656163686564000000000000000000006044820152606401620000d8565b600081116200037f5760405162461bcd60e51b815260206004820152601360248201527f4e6f7420656e6f756768204554482073656e74000000000000000000000000006044820152606401620000d8565b6200038c30878362000566565b8060096000828254620003a09190620014c3565b9091555050600754600a546009546001600160a01b039092169163315dc1ff9189916001918791879190620003d4620005d2565b6040516001600160e01b031960e08a901b1681526001600160a01b039097166004880152941515602487015260448601939093526064850191909152608484015260a483015260c482015260e401600060405180830381600087803b1580156200043d57600080fd5b505af115801562000452573d6000803e3d6000fd5b5050505067d02ab486cedc0000600a541062000485576007805460ff60a01b1916600160a01b1790556200048562000629565b505050505050565b6200049a83838362000d55565b600754604051634f2b0cbf60e11b81526001600160a01b03858116600483015284811660248301526044820184905290911690639e56197e90606401600060405180830381600087803b158015620004f157600080fd5b505af115801562000506573d6000803e3d6000fd5b50505050505050565b60008062000525600a5462000e8860201b60201c565b6200053f600a5485620005399190620014c3565b62000e88565b6200054b9190620014ad565b6200055f906702ddd87149349e006200143c565b9392505050565b6001600160a01b03831662000593576000604051634b637e8f60e11b8152600401620000d8919062001412565b6001600160a01b038216620005c057600060405163ec442f0560e01b8152600401620000d8919062001412565b620005cd8383836200048d565b505050565b600a546000906702ddd87149349e00908290620005ef9062000e88565b9050600082620006018360026200143c565b6200061590670de0b6b3a76400006200143c565b6200062191906200146c565b949350505050565b620006b930600860009054906101000a90046001600160a01b03166001600160a01b0316634e967fef6040518163ffffffff1660e01b8152600401602060405180830381865afa15801562000682573d6000803e3d6000fd5b505050506040513d601f19601f82011682018060405250810190620006a891906200148f565b620006b33062000f8d565b62000fa8565b600080600860009054906101000a90046001600160a01b03166001600160a01b031663ad5c46486040518163ffffffff1660e01b8152600401602060405180830381865afa15801562000710573d6000803e3d6000fd5b505050506040513d601f19601f820116820180604052508101906200073691906200148f565b6001600160a01b0316301015620007cc57309150600860009054906101000a90046001600160a01b03166001600160a01b031663ad5c46486040518163ffffffff1660e01b8152600401602060405180830381865afa1580156200079e573d6000803e3d6000fd5b505050506040513d601f19601f82011682018060405250810190620007c491906200148f565b90506200084c565b600860009054906101000a90046001600160a01b03166001600160a01b031663ad5c46486040518163ffffffff1660e01b8152600401602060405180830381865afa15801562000820573d6000803e3d6000fd5b505050506040513d601f19601f820116820180604052508101906200084691906200148f565b91503090505b600860009054906101000a90046001600160a01b03166001600160a01b0316634e967fef6040518163ffffffff1660e01b8152600401602060405180830381865afa158015620008a0573d6000803e3d6000fd5b505050506040513d601f19601f82011682018060405250810190620008c691906200148f565b6001600160a01b03166313ead5628383610bb8620008e762000539620005d2565b62000900906c010000000000000000000000006200143c565b6040516001600160e01b031960e087901b1681526001600160a01b039485166004820152928416602484015262ffffff90911660448301529190911660648201526084016020604051808303816000875af115801562000964573d6000803e3d6000fd5b505050506040513d601f19601f820116820180604052508101906200098a91906200148f565b50600854604080516315ab88c960e31b8152905147926001600160a01b03169163ad5c46489160048083019260209291908290030181865afa158015620009d5573d6000803e3d6000fd5b505050506040513d601f19601f82011682018060405250810190620009fb91906200148f565b6001600160a01b031663d0e30db0826040518263ffffffff1660e01b81526004016000604051808303818588803b15801562000a3657600080fd5b505af115801562000a4b573d6000803e3d6000fd5b5050600854604080516315ab88c960e31b815290516001600160a01b03909216945063ad5c4648935060048082019350602092918290030181865afa15801562000a99573d6000803e3d6000fd5b505050506040513d601f19601f8201168201806040525081019062000abf91906200148f565b6001600160a01b031663095ea7b3600860009054906101000a90046001600160a01b03166001600160a01b0316634e967fef6040518163ffffffff1660e01b8152600401602060405180830381865afa15801562000b21573d6000803e3d6000fd5b505050506040513d601f19601f8201168201806040525081019062000b4791906200148f565b6040516001600160e01b031960e084901b1681526001600160a01b039091166004820152602481018490526044016020604051808303816000875af115801562000b95573d6000803e3d6000fd5b505050506040513d601f19601f8201168201806040525081019062000bbb9190620014d9565b5060006001600160a01b038416301462000bd6578162000be1565b62000be13062000f8d565b905060006001600160a01b038416301462000bfd578262000c08565b62000c083062000f8d565b60408051610160810182526001600160a01b038089168252878116602080840191909152610bb883850152600060608401819052620493e0608085015260a0840188905260c0840186905260e0840181905261010084015230610120840152426101408401526008548451634e967fef60e01b8152945195965092949290911692634e967fef92600480830193928290030181865afa15801562000cb0573d6000803e3d6000fd5b505050506040513d601f19601f8201168201806040525081019062000cd691906200148f565b6001600160a01b03166388316456826040518263ffffffff1660e01b815260040162000d039190620014fd565b6080604051808303816000875af115801562000d23573d6000803e3d6000fd5b505050506040513d601f19601f8201168201806040525081019062000d499190620015c6565b50505050505050505050565b6001600160a01b03831662000d8457806002600082825462000d789190620014c3565b9091555062000df89050565b6001600160a01b0383166000908152602081905260409020548181101562000dd95760405163391434e360e21b81526001600160a01b03851660048201526024810182905260448101839052606401620000d8565b6001600160a01b03841660009081526020819052604090209082900390555b6001600160a01b03821662000e165760028054829003905562000e35565b6001600160a01b03821660009081526020819052604090208054820190555b816001600160a01b0316836001600160a01b03167fddf252ad1be2c89b69c2b068fc378daa952ba7f163c4a11628f55a4df523b3ef8360405162000e7b91815260200190565b60405180910390a3505050565b60008160000362000e9b57506000919050565b6000600162000eaa8462000fb7565b901c6001901b9050600181848162000ec65762000ec662001456565b048201901c9050600181848162000ee15762000ee162001456565b048201901c9050600181848162000efc5762000efc62001456565b048201901c9050600181848162000f175762000f1762001456565b048201901c9050600181848162000f325762000f3262001456565b048201901c9050600181848162000f4d5762000f4d62001456565b048201901c9050600181848162000f685762000f6862001456565b048201901c90506200055f8182858162000f865762000f8662001456565b0462001054565b6001600160a01b031660009081526020819052604090205490565b620005cd83838360016200106c565b600080608083901c1562000fcd57608092831c92015b604083901c1562000fe057604092831c92015b602083901c1562000ff357602092831c92015b601083901c156200100657601092831c92015b600883901c156200101957600892831c92015b600483901c156200102c57600492831c92015b600283901c156200103f57600292831c92015b600183901c156200104e576001015b92915050565b60008183106200106557816200055f565b5090919050565b6001600160a01b0384166200109957600060405163e602df0560e01b8152600401620000d8919062001412565b6001600160a01b038316620010c6576000604051634a1406b160e11b8152600401620000d8919062001412565b6001600160a01b03808516600090815260016020908152604080832093871683529290522082905580156200114457826001600160a01b0316846001600160a01b03167f8c5be1e5ebec7d5bd14f71427d1e84f3dd0314c0f7b2291e5b200ac8c7c3b925846040516200113b91815260200190565b60405180910390a35b50505050565b634e487b7160e01b600052604160045260246000fd5b600082601f8301126200117257600080fd5b81516001600160401b03808211156200118f576200118f6200114a565b604051601f8301601f19908116603f01168101908282118183101715620011ba57620011ba6200114a565b8160405283815260209250866020858801011115620011d857600080fd5b600091505b83821015620011fc5785820183015181830184015290820190620011dd565b6000602085830101528094505050505092915050565b80516001600160a01b03811681146200122a57600080fd5b919050565b600080600080608085870312156200124657600080fd5b84516001600160401b03808211156200125e57600080fd5b6200126c8883890162001160565b955060208701519150808211156200128357600080fd5b50620012928782880162001160565b935050620012a36040860162001212565b9150620012b36060860162001212565b905092959194509250565b600181811c90821680620012d357607f821691505b602082108103620012f457634e487b7160e01b600052602260045260246000fd5b50919050565b601f821115620005cd576000816000526020600020601f850160051c81016020861015620013255750805b601f850160051c820191505b81811015620004855782815560010162001331565b81516001600160401b038111156200136257620013626200114a565b6200137a81620013738454620012be565b84620012fa565b602080601f831160018114620013b25760008415620013995750858301515b600019600386901b1c1916600185901b17855562000485565b600085815260208120601f198616915b82811015620013e357888601518255948401946001909101908401620013c2565b5085821015620014025787850151600019600388901b60f8161c191681555b5050505050600190811b01905550565b6001600160a01b0391909116815260200190565b634e487b7160e01b600052601160045260246000fd5b80820281158282048414176200104e576200104e62001426565b634e487b7160e01b600052601260045260246000fd5b6000826200148a57634e487b7160e01b600052601260045260246000fd5b500490565b600060208284031215620014a257600080fd5b6200055f8262001212565b818103818111156200104e576200104e62001426565b808201808211156200104e576200104e62001426565b600060208284031215620014ec57600080fd5b815180151581146200055f57600080fd5b81516001600160a01b03168152610160810160208301516200152a60208401826001600160a01b03169052565b50604083015162001542604084018262ffffff169052565b50606083015162001558606084018260020b9052565b5060808301516200156e608084018260020b9052565b5060a083015160a083015260c083015160c083015260e083015160e083015261010080840151818401525061012080840151620015b5828501826001600160a01b03169052565b505061014092830151919092015290565b60008060008060808587031215620015dd57600080fd5b845160208601519094506001600160801b0381168114620015fd57600080fd5b6040860151606090960151949790965092505050565b61202280620016236000396000f3fe6080604052600436106101255760003560e01c80620b46f81461012a5780630145c3571461015257806306fdde0314610167578063095ea7b314610189578063150b7a02146101b957806318160ddd146101f257806323b872dd14610207578063289692e814610227578063313ce5671461024357806332cb6b0c1461025f578063518ab2a81461027e57806370a08231146102945780638542bdff146102b45780638da5cb5b146102d457806395d89b4114610301578063a24bcf4614610316578063a6f2ae3a14610336578063a9059cbb14610340578063b187bd2614610360578063b5f8558c14610381578063c45a0155146103a1578063c98166c0146103c1578063dd62ed3e146103d7578063e4849b32146103f7578063f751758b14610417575b600080fd5b34801561013657600080fd5b5061013f600181565b6040519081526020015b60405180910390f35b34801561015e57600080fd5b5061013f61042c565b34801561017357600080fd5b5061017c61048b565b6040516101499190611a24565b34801561019557600080fd5b506101a96101a4366004611a88565b61051d565b6040519015158152602001610149565b3480156101c557600080fd5b506101d96101d4366004611ab4565b610537565b6040516001600160e01b03199091168152602001610149565b3480156101fe57600080fd5b5060025461013f565b34801561021357600080fd5b506101a9610222366004611b52565b61061b565b34801561023357600080fd5b5061013f67d02ab486cedc000081565b34801561024f57600080fd5b5060405160128152602001610149565b34801561026b57600080fd5b5061013f676765c793fa10079d601b1b81565b34801561028a57600080fd5b5061013f60095481565b3480156102a057600080fd5b5061013f6102af366004611b93565b61063f565b3480156102c057600080fd5b5061013f6102cf366004611bb0565b61065a565b3480156102e057600080fd5b506006546102f4906001600160a01b031681565b6040516101499190611bd6565b34801561030d57600080fd5b5061017c610727565b34801561032257600080fd5b5061013f610331366004611bb0565b610736565b61033e610776565b005b34801561034c57600080fd5b506101a961035b366004611a88565b610794565b34801561036c57600080fd5b506007546101a990600160a01b900460ff1681565b34801561038d57600080fd5b506007546102f4906001600160a01b031681565b3480156103ad57600080fd5b506008546102f4906001600160a01b031681565b3480156103cd57600080fd5b5061013f600a5481565b3480156103e357600080fd5b5061013f6103f2366004611bea565b6107a2565b34801561040357600080fd5b5061033e610412366004611bb0565b6107cd565b34801561042357600080fd5b5061013f610b33565b600754600090600160a01b900460ff16156104475750600090565b6000600a5467d02ab486cedc000061045f9190611c39565b9050600061046f60016064611c39565b61047a836064611c4c565b6104849190611c79565b9392505050565b60606003805461049a90611c9b565b80601f01602080910402602001604051908101604052809291908181526020018280546104c690611c9b565b80156105135780601f106104e857610100808354040283529160200191610513565b820191906000526020600020905b8154815290600101906020018083116104f657829003601f168201915b5050505050905090565b60003361052b818585610b82565b60019150505b92915050565b60085460408051634e967fef60e01b815290516000926001600160a01b031691634e967fef9160048083019260209291908290030181865afa158015610581573d6000803e3d6000fd5b505050506040513d601f19601f820116820180604052508101906105a59190611cd5565b6001600160a01b0316336001600160a01b0316146106095760405162461bcd60e51b815260206004820152601c60248201527b13db9b1e48155b9a5cddd85c08158cc81391951cc8185b1b1bddd95960221b60448201526064015b60405180910390fd5b50630a85bd0160e11b95945050505050565b600033610629858285610b94565b610634858585610be7565b506001949350505050565b6001600160a01b031660009081526020819052604090205490565b6009546000908161066b8483611c39565b90506000670de0b6b3a76400008060026702ddd87149349e0061069687670de0b6b3a7640000611c4c565b6106a09190611c79565b6106aa9190611dd6565b6106b49190611c79565b6106be9190611c79565b90506000670de0b6b3a76400008060026702ddd87149349e006106e987670de0b6b3a7640000611c4c565b6106f39190611c79565b6106fd9190611dd6565b6107079190611c79565b6107119190611c79565b905061071d8183611c39565b9695505050505050565b60606004805461049a90611c9b565b600080610744600a54610c46565b61075a600a54856107559190611de5565b610c46565b6107649190611c39565b610484906702ddd87149349e00611c4c565b61077e610d2e565b6107883334610d58565b6107926001600555565b565b60003361052b818585610be7565b6001600160a01b03918216600090815260016020908152604080832093909416825291909152205490565b6107d5610d2e565b600754600160a01b900460ff16156107ff5760405162461bcd60e51b815260040161060090611df8565b6000600954116108465760405162461bcd60e51b8152602060048201526012602482015271139bc81d1bdad95b9cc81cdbdb19081e595d60721b6044820152606401610600565b806108503361063f565b10156108955760405162461bcd60e51b8152602060048201526014602482015273496e73756666696369656e742062616c616e636560601b6044820152606401610600565b60006108a08261065a565b9050600060646108b1600184611c4c565b6108bb9190611c79565b90506000600860009054906101000a90046001600160a01b03166001600160a01b031663b3f006746040518163ffffffff1660e01b8152600401602060405180830381865afa158015610912573d6000803e3d6000fd5b505050506040513d601f19601f820116820180604052508101906109369190611cd5565b6001600160a01b03168260405160006040518083038185875af1925050503d8060008114610980576040519150601f19603f3d011682016040523d82523d6000602084013e610985565b606091505b50509050806109a65760405162461bcd60e51b815260040161060090611e2b565b60006109b13061063f565b6109bb8486611c39565b116109cf576109ca8385611c39565b6109d8565b6109d83061063f565b90506109e5333087610be7565b84600960008282546109f79190611c39565b909155505060405133908290600081818185875af1925050503d8060008114610a3c576040519150601f19603f3d011682016040523d82523d6000602084013e610a41565b606091505b50508092505081610a8a5760405162461bcd60e51b8152602060048201526013602482015272115512081d1c985b9cd9995c8819985a5b1959606a1b6044820152606401610600565b83600a6000828254610a9c9190611c39565b9091555050600754600a546009546001600160a01b039092169163315dc1ff91339160009186918b9190610ace610b33565b6040518863ffffffff1660e01b8152600401610af09796959493929190611e6d565b600060405180830381600087803b158015610b0a57600080fd5b505af1158015610b1e573d6000803e3d6000fd5b5050505050505050610b306001600555565b50565b6000806702ddd87149349e0090506000610b4e600a54610c46565b9050600082610b5e836002611c4c565b610b7090670de0b6b3a7640000611c4c565b610b7a9190611c79565b949350505050565b610b8f8383836001611028565b505050565b6000610ba084846107a2565b90506000198114610be15781811015610bd257828183604051637dc7a0d960e11b815260040161060093929190611ea8565b610be184848484036000611028565b50505050565b6001600160a01b038316610c11576000604051634b637e8f60e11b81526004016106009190611bd6565b6001600160a01b038216610c3b57600060405163ec442f0560e01b81526004016106009190611bd6565b610b8f8383836110fd565b600081600003610c5857506000919050565b60006001610c658461117b565b901c6001901b90506001818481610c7e57610c7e611c63565b048201901c90506001818481610c9657610c96611c63565b048201901c90506001818481610cae57610cae611c63565b048201901c90506001818481610cc657610cc6611c63565b048201901c90506001818481610cde57610cde611c63565b048201901c90506001818481610cf657610cf6611c63565b048201901c90506001818481610d0e57610d0e611c63565b048201901c905061048481828581610d2857610d28611c63565b0461120f565b600260055403610d5157604051633ee5aeb560e01b815260040160405180910390fd5b6002600555565b600754600160a01b900460ff1615610d825760405162461bcd60e51b815260040161060090611df8565b60006064610d91600184611c4c565b610d9b9190611c79565b90506000600860009054906101000a90046001600160a01b03166001600160a01b031663b3f006746040518163ffffffff1660e01b8152600401602060405180830381865afa158015610df2573d6000803e3d6000fd5b505050506040513d601f19601f82011682018060405250810190610e169190611cd5565b6001600160a01b03168260405160006040518083038185875af1925050503d8060008114610e60576040519150601f19603f3d011682016040523d82523d6000602084013e610e65565b606091505b5050905080610e865760405162461bcd60e51b815260040161060090611e2b565b6000610e928385611c39565b90506000610e9f82610736565b905081600a6000828254610eb39190611de5565b9091555050600a5467d02ab486cedc00001015610f0b5760405162461bcd60e51b815260206004820152601660248201527513585e0811551208185b5bdd5b9d081c995858da195960521b6044820152606401610600565b60008111610f515760405162461bcd60e51b8152602060048201526013602482015272139bdd08195b9bdd59da08115512081cd95b9d606a1b6044820152606401610600565b610f5c308783610be7565b8060096000828254610f6e9190611de5565b9091555050600754600a546009546001600160a01b039092169163315dc1ff9189916001918791879190610fa0610b33565b6040518863ffffffff1660e01b8152600401610fc29796959493929190611e6d565b600060405180830381600087803b158015610fdc57600080fd5b505af1158015610ff0573d6000803e3d6000fd5b5050505067d02ab486cedc0000600a5410611020576007805460ff60a01b1916600160a01b179055611020611225565b505050505050565b6001600160a01b03841661105257600060405163e602df0560e01b81526004016106009190611bd6565b6001600160a01b03831661107c576000604051634a1406b160e11b81526004016106009190611bd6565b6001600160a01b0380851660009081526001602090815260408083209387168352929052208290558015610be157826001600160a01b0316846001600160a01b03167f8c5be1e5ebec7d5bd14f71427d1e84f3dd0314c0f7b2291e5b200ac8c7c3b925846040516110ef91815260200190565b60405180910390a350505050565b61110883838361190d565b600754604051634f2b0cbf60e11b81526001600160a01b03858116600483015284811660248301526044820184905290911690639e56197e90606401600060405180830381600087803b15801561115e57600080fd5b505af1158015611172573d6000803e3d6000fd5b50505050505050565b600080608083901c1561119057608092831c92015b604083901c156111a257604092831c92015b602083901c156111b457602092831c92015b601083901c156111c657601092831c92015b600883901c156111d857600892831c92015b600483901c156111ea57600492831c92015b600283901c156111fc57600292831c92015b600183901c156105315760010192915050565b600081831061121e5781610484565b5090919050565b6112ae30600860009054906101000a90046001600160a01b03166001600160a01b0316634e967fef6040518163ffffffff1660e01b8152600401602060405180830381865afa15801561127c573d6000803e3d6000fd5b505050506040513d601f19601f820116820180604052508101906112a09190611cd5565b6112a93061063f565b610b82565b600080600860009054906101000a90046001600160a01b03166001600160a01b031663ad5c46486040518163ffffffff1660e01b8152600401602060405180830381865afa158015611304573d6000803e3d6000fd5b505050506040513d601f19601f820116820180604052508101906113289190611cd5565b6001600160a01b03163010156113b957309150600860009054906101000a90046001600160a01b03166001600160a01b031663ad5c46486040518163ffffffff1660e01b8152600401602060405180830381865afa15801561138e573d6000803e3d6000fd5b505050506040513d601f19601f820116820180604052508101906113b29190611cd5565b9050611436565b600860009054906101000a90046001600160a01b03166001600160a01b031663ad5c46486040518163ffffffff1660e01b8152600401602060405180830381865afa15801561140c573d6000803e3d6000fd5b505050506040513d601f19601f820116820180604052508101906114309190611cd5565b91503090505b600860009054906101000a90046001600160a01b03166001600160a01b0316634e967fef6040518163ffffffff1660e01b8152600401602060405180830381865afa158015611489573d6000803e3d6000fd5b505050506040513d601f19601f820116820180604052508101906114ad9190611cd5565b6001600160a01b03166313ead5628383610bb86114cb610755610b33565b6114d990600160601b611c4c565b6040516001600160e01b031960e087901b1681526001600160a01b039485166004820152928416602484015262ffffff90911660448301529190911660648201526084016020604051808303816000875af115801561153c573d6000803e3d6000fd5b505050506040513d601f19601f820116820180604052508101906115609190611cd5565b50600854604080516315ab88c960e31b8152905147926001600160a01b03169163ad5c46489160048083019260209291908290030181865afa1580156115aa573d6000803e3d6000fd5b505050506040513d601f19601f820116820180604052508101906115ce9190611cd5565b6001600160a01b031663d0e30db0826040518263ffffffff1660e01b81526004016000604051808303818588803b15801561160857600080fd5b505af115801561161c573d6000803e3d6000fd5b5050600854604080516315ab88c960e31b815290516001600160a01b03909216945063ad5c4648935060048082019350602092918290030181865afa158015611669573d6000803e3d6000fd5b505050506040513d601f19601f8201168201806040525081019061168d9190611cd5565b6001600160a01b031663095ea7b3600860009054906101000a90046001600160a01b03166001600160a01b0316634e967fef6040518163ffffffff1660e01b8152600401602060405180830381865afa1580156116ee573d6000803e3d6000fd5b505050506040513d601f19601f820116820180604052508101906117129190611cd5565b6040516001600160e01b031960e084901b1681526001600160a01b039091166004820152602481018490526044016020604051808303816000875af115801561175f573d6000803e3d6000fd5b505050506040513d601f19601f820116820180604052508101906117839190611ec9565b5060006001600160a01b038416301461179c57816117a5565b6117a53061063f565b905060006001600160a01b03841630146117bf57826117c8565b6117c83061063f565b60408051610160810182526001600160a01b038089168252878116602080840191909152610bb883850152600060608401819052620493e0608085015260a0840188905260c0840186905260e0840181905261010084015230610120840152426101408401526008548451634e967fef60e01b8152945195965092949290911692634e967fef92600480830193928290030181865afa15801561186f573d6000803e3d6000fd5b505050506040513d601f19601f820116820180604052508101906118939190611cd5565b6001600160a01b03166388316456826040518263ffffffff1660e01b81526004016118be9190611eeb565b6080604051808303816000875af11580156118dd573d6000803e3d6000fd5b505050506040513d601f19601f820116820180604052508101906119019190611fa1565b50505050505050505050565b6001600160a01b03831661193857806002600082825461192d9190611de5565b909155506119979050565b6001600160a01b038316600090815260208190526040902054818110156119785783818360405163391434e360e21b815260040161060093929190611ea8565b6001600160a01b03841660009081526020819052604090209082900390555b6001600160a01b0382166119b3576002805482900390556119d2565b6001600160a01b03821660009081526020819052604090208054820190555b816001600160a01b0316836001600160a01b03167fddf252ad1be2c89b69c2b068fc378daa952ba7f163c4a11628f55a4df523b3ef83604051611a1791815260200190565b60405180910390a3505050565b60006020808352835180602085015260005b81811015611a5257858101830151858201604001528201611a36565b506000604082860101526040601f19601f8301168501019250505092915050565b6001600160a01b0381168114610b3057600080fd5b60008060408385031215611a9b57600080fd5b8235611aa681611a73565b946020939093013593505050565b600080600080600060808688031215611acc57600080fd5b8535611ad781611a73565b94506020860135611ae781611a73565b93506040860135925060608601356001600160401b0380821115611b0a57600080fd5b818801915088601f830112611b1e57600080fd5b813581811115611b2d57600080fd5b896020828501011115611b3f57600080fd5b9699959850939650602001949392505050565b600080600060608486031215611b6757600080fd5b8335611b7281611a73565b92506020840135611b8281611a73565b929592945050506040919091013590565b600060208284031215611ba557600080fd5b813561048481611a73565b600060208284031215611bc257600080fd5b5035919050565b6001600160a01b03169052565b6001600160a01b0391909116815260200190565b60008060408385031215611bfd57600080fd5b8235611c0881611a73565b91506020830135611c1881611a73565b809150509250929050565b634e487b7160e01b600052601160045260246000fd5b8181038181111561053157610531611c23565b808202811582820484141761053157610531611c23565b634e487b7160e01b600052601260045260246000fd5b600082611c9657634e487b7160e01b600052601260045260246000fd5b500490565b600181811c90821680611caf57607f821691505b602082108103611ccf57634e487b7160e01b600052602260045260246000fd5b50919050565b600060208284031215611ce757600080fd5b815161048481611a73565b600181815b80851115611d2d578160001904821115611d1357611d13611c23565b80851615611d2057918102915b93841c9390800290611cf7565b509250929050565b600082611d4457506001610531565b81611d5157506000610531565b8160018114611d675760028114611d7157611d8d565b6001915050610531565b60ff841115611d8257611d82611c23565b50506001821b610531565b5060208310610133831016604e8410600b8410161715611db0575081810a610531565b611dba8383611cf2565b8060001904821115611dce57611dce611c23565b029392505050565b600061048460ff841683611d35565b8082018082111561053157610531611c23565b602080825260199082015278109bdb991a5b99c818dd5c9d99481c1a185cd948195b991959603a1b604082015260600190565b60208082526022908201527f466565207472616e7366657220746f206665655265636569766572206661696c604082015261195960f21b606082015260800190565b6001600160a01b03979097168752941515602087015260408601939093526060850191909152608084015260a083015260c082015260e00190565b6001600160a01b039390931683526020830191909152604082015260600190565b600060208284031215611edb57600080fd5b8151801515811461048457600080fd5b600061016082019050611eff828451611bc9565b6020830151611f116020840182611bc9565b506040830151611f28604084018262ffffff169052565b506060830151611f3d606084018260020b9052565b506080830151611f52608084018260020b9052565b5060a083015160a083015260c083015160c083015260e083015160e083015261010080840151818401525061012080840151611f9082850182611bc9565b505061014092830151919092015290565b60008060008060808587031215611fb757600080fd5b845160208601519094506001600160801b0381168114611fd657600080fd5b604086015160609096015194979096509250505056fea26469706673582212206ecb4e37c64a734c8b8f0a75a04327670ee29bf58f633a96aa54f233c2c46d1664736f6c63430008180033",
  "linkReferences": {},
  "deployedLinkReferences": {}
}