{
  "_format": "hh-sol-artifact-1",
  "contractName": "PreSale",
  "sourceName": "contracts/PreSale.sol",
  "abi": [
    {
      "inputs": [
        {
          "internalType": "bytes32",
          "name": "_tokenBytecodeHash",
          "type": "bytes32"
        }
      ],
      "stateMutability": "nonpayable",
      "type": "constructor"
    },
    {
      "inputs": [],
      "name": "TOKEN_BYTECODE_HASH",
      "outputs": [
        {
          "internalType": "bytes32",
          "name": "",
          "type": "bytes32"
        }
      ],
      "stateMutability": "view",
      "type": "function"
    },
    {
      "inputs": [
        {
          "internalType": "string",
          "name": "name",
          "type": "string"
        },
        {
          "internalType": "string",
          "name": "symbol",
          "type": "string"
        },
        {
          "internalType": "uint256",
          "name": "_maxSupply",
          "type": "uint256"
        },
        {
          "internalType": "uint256",
          "name": "_creatorAmount",
          "type": "uint256"
        },
        {
          "internalType": "uint256",
          "name": "_price",
          "type": "uint256"
        },
        {
          "internalType": "string",
          "name": "_code",
          "type": "string"
        }
      ],
      "name": "createToken",
      "outputs": [],
      "stateMutability": "nonpayable",
      "type": "function"
    },
    {
      "inputs": [
        {
          "internalType": "string",
          "name": "name",
          "type": "string"
        },
        {
          "internalType": "string",
          "name": "symbol",
          "type": "string"
        },
        {
          "internalType": "uint256",
          "name": "_maxSupply",
          "type": "uint256"
        },
        {
          "internalType": "address",
          "name": "_creatorAddress",
          "type": "address"
        },
        {
          "internalType": "uint256",
          "name": "_creatorAmount",
          "type": "uint256"
        },
        {
          "internalType": "uint256",
          "name": "_price",
          "type": "uint256"
        },
        {
          "internalType": "string",
          "name": "_code",
          "type": "string"
        }
      ],
      "name": "getCreate2Address",
      "outputs": [
        {
          "internalType": "address",
          "name": "",
          "type": "address"
        }
      ],
      "stateMutability": "view",
      "type": "function"
    },
    {
      "inputs": [
        {
          "internalType": "string",
          "name": "name",
          "type": "string"
        },
        {
          "internalType": "string",
          "name": "symbol",
          "type": "string"
        },
        {
          "internalType": "uint256",
          "name": "_maxSupply",
          "type": "uint256"
        },
        {
          "internalType": "address",
          "name": "_creatorAddress",
          "type": "address"
        },
        {
          "internalType": "uint256",
          "name": "_creatorAmount",
          "type": "uint256"
        },
        {
          "internalType": "uint256",
          "name": "_price",
          "type": "uint256"
        },
        {
          "internalType": "string",
          "name": "_code",
          "type": "string"
        }
      ],
      "name": "getEVMCreate2Address",
      "outputs": [
        {
          "internalType": "address",
          "name": "",
          "type": "address"
        }
      ],
      "stateMutability": "view",
      "type": "function"
    }
  ],
  "bytecode": "0x60a060405234801561001057600080fd5b506040516116a03803806116a083398101604081905261002f91610037565b608052610050565b60006020828403121561004957600080fd5b5051919050565b60805161162f6100716000396000818160c1015261020a015261162f6000f3fe60806040523480156200001157600080fd5b5060043610620000525760003560e01c806307030b0814620000575780632a480f7c146200007057806346f8194714620000a457806378fdbbc114620000bb575b600080fd5b6200006e6200006836600462000415565b620000f2565b005b6200008762000081366004620004c2565b62000171565b6040516001600160a01b0390911681526020015b60405180910390f35b62000087620000b5366004620004c2565b6200025d565b620000e37f000000000000000000000000000000000000000000000000000000000000000081565b6040519081526020016200009b565b600081604051602001620001079190620005b8565b6040516020818303038152906040528051906020012090508087878733888860405162000134906200035d565b620001459695949392919062000604565b8190604051809103906000f590508015801562000166573d6000803e3d6000fd5b505050505050505050565b60008082604051602001620001879190620005b8565b6040516020818303038152906040528051906020012090506000898989898989604051602001620001be9695949392919062000604565b60408051601f1981840301815282825280516020918201207f2020dba91b30cc0006188af794c2fb30dd8520db7e2c088b7fc7c103c00ca49482850152308484015260608401959095527f0000000000000000000000000000000000000000000000000000000000000000608084015260a0808401959095528151808403909501855260c0909201905282519201919091209998505050505050505050565b60008082604051602001620002739190620005b8565b6040516020818303038152906040528051906020012090506000604051806020016200029f906200035d565b601f1982820381018352601f909101166040819052620002ce908c908c908c908c908c908c9060200162000604565b60408051601f1981840301815290829052620002ee92916020016200065c565b60408051808303601f1901815282825280516020918201206001600160f81b0319828501523060601b6001600160601b03191660218501526035840195909552605580840195909552815180840390950185526075909201905282519201919091209998505050505050505050565b610f6a806200069083390190565b634e487b7160e01b600052604160045260246000fd5b600082601f8301126200039357600080fd5b81356001600160401b0380821115620003b057620003b06200036b565b604051601f8301601f19908116603f01168101908282118183101715620003db57620003db6200036b565b81604052838152866020858801011115620003f557600080fd5b836020870160208301376000602085830101528094505050505092915050565b60008060008060008060c087890312156200042f57600080fd5b86356001600160401b03808211156200044757600080fd5b620004558a838b0162000381565b975060208901359150808211156200046c57600080fd5b6200047a8a838b0162000381565b965060408901359550606089013594506080890135935060a0890135915080821115620004a657600080fd5b50620004b589828a0162000381565b9150509295509295509295565b600080600080600080600060e0888a031215620004de57600080fd5b87356001600160401b0380821115620004f657600080fd5b620005048b838c0162000381565b985060208a01359150808211156200051b57600080fd5b620005298b838c0162000381565b975060408a0135965060608a013591506001600160a01b03821682146200054f57600080fd5b9094506080890135935060a0890135925060c089013590808211156200057457600080fd5b50620005838a828b0162000381565b91505092959891949750929550565b60005b83811015620005af57818101518382015260200162000595565b50506000910152565b60008251620005cc81846020870162000592565b9190910192915050565b60008151808452620005f081602086016020860162000592565b601f01601f19169290920160200192915050565b60c0815260006200061960c0830189620005d6565b82810360208401526200062d8189620005d6565b604084019790975250506001600160a01b03939093166060840152608083019190915260a09091015292915050565b600083516200067081846020880162000592565b8351908301906200068681836020880162000592565b0194935050505056fe60806040523480156200001157600080fd5b5060405162000f6a38038062000f6a8339810160408190526200003491620002d0565b8585600362000044838262000408565b50600462000053828262000408565b5050506006849055600580546001600160a01b0319166001600160a01b03851690811790915560078290556200008a908362000096565b505050505050620004fc565b6001600160a01b038216620000c65760405163ec442f0560e01b8152600060048201526024015b60405180910390fd5b620000d460008383620000d8565b5050565b6001600160a01b03831662000107578060026000828254620000fb9190620004d4565b909155506200017b9050565b6001600160a01b038316600090815260208190526040902054818110156200015c5760405163391434e360e21b81526001600160a01b03851660048201526024810182905260448101839052606401620000bd565b6001600160a01b03841660009081526020819052604090209082900390555b6001600160a01b0382166200019957600280548290039055620001b8565b6001600160a01b03821660009081526020819052604090208054820190555b816001600160a01b0316836001600160a01b03167fddf252ad1be2c89b69c2b068fc378daa952ba7f163c4a11628f55a4df523b3ef83604051620001fe91815260200190565b60405180910390a3505050565b634e487b7160e01b600052604160045260246000fd5b600082601f8301126200023357600080fd5b81516001600160401b03808211156200025057620002506200020b565b604051601f8301601f19908116603f011681019082821181831017156200027b576200027b6200020b565b816040528381526020925086838588010111156200029857600080fd5b600091505b83821015620002bc57858201830151818301840152908201906200029d565b600093810190920192909252949350505050565b60008060008060008060c08789031215620002ea57600080fd5b86516001600160401b03808211156200030257600080fd5b620003108a838b0162000221565b975060208901519150808211156200032757600080fd5b506200033689828a0162000221565b604089015160608a0151919750955090506001600160a01b03811681146200035d57600080fd5b809350506080870151915060a087015190509295509295509295565b600181811c908216806200038e57607f821691505b602082108103620003af57634e487b7160e01b600052602260045260246000fd5b50919050565b601f8211156200040357600081815260208120601f850160051c81016020861015620003de5750805b601f850160051c820191505b81811015620003ff57828155600101620003ea565b5050505b505050565b81516001600160401b038111156200042457620004246200020b565b6200043c8162000435845462000379565b84620003b5565b602080601f8311600181146200047457600084156200045b5750858301515b600019600386901b1c1916600185901b178555620003ff565b600085815260208120601f198616915b82811015620004a55788860151825594840194600190910190840162000484565b5085821015620004c45787850151600019600388901b60f8161c191681555b5050505050600190811b01905550565b80820180821115620004f657634e487b7160e01b600052601160045260246000fd5b92915050565b610a5e806200050c6000396000f3fe6080604052600436106100a25760003560e01c806302d05d3f146100a757806306fdde03146100dd578063095ea7b3146100ff57806318160ddd1461012f57806323b872dd1461014e578063313ce5671461016e57806370a082311461018a57806395d89b41146101c0578063a035b1fe146101d5578063a6f2ae3a146101eb578063a9059cbb146101f5578063d5abeb0114610215578063dd62ed3e1461022b575b600080fd5b3480156100b357600080fd5b506005546100c7906001600160a01b031681565b6040516100d4919061081f565b60405180910390f35b3480156100e957600080fd5b506100f261024b565b6040516100d49190610833565b34801561010b57600080fd5b5061011f61011a36600461089d565b6102dd565b60405190151581526020016100d4565b34801561013b57600080fd5b506002545b6040519081526020016100d4565b34801561015a57600080fd5b5061011f6101693660046108c7565b6102f7565b34801561017a57600080fd5b50604051601281526020016100d4565b34801561019657600080fd5b506101406101a5366004610903565b6001600160a01b031660009081526020819052604090205490565b3480156101cc57600080fd5b506100f261031b565b3480156101e157600080fd5b5061014060075481565b6101f361032a565b005b34801561020157600080fd5b5061011f61021036600461089d565b610500565b34801561022157600080fd5b5061014060065481565b34801561023757600080fd5b50610140610246366004610925565b61050e565b60606003805461025a90610958565b80601f016020809104026020016040519081016040528092919081815260200182805461028690610958565b80156102d35780601f106102a8576101008083540402835291602001916102d3565b820191906000526020600020905b8154815290600101906020018083116102b657829003601f168201915b5050505050905090565b6000336102eb818585610539565b60019150505b92915050565b60003361030585828561054b565b61031085858561059e565b506001949350505050565b60606004805461025a90610958565b6000341161037e5760405162461bcd60e51b815260206004820152601c60248201527b056616c7565206d7573742062652067726561746572207468616e20360241b60448201526064015b60405180910390fd5b60075460009061039634670de0b6b3a76400006109a8565b6103a091906109bf565b9050600081116103f25760405162461bcd60e51b815260206004820152601d60248201527f416d6f756e74206d7573742062652067726561746572207468616e20300000006044820152606401610375565b60025460065461040291906109e1565b81111561045d5760405162461bcd60e51b815260206004820152602360248201527f416d6f756e74206d757374206265206c657373207468616e206d617820737570604482015262706c7960e81b6064820152608401610375565b6005546040516000916001600160a01b03169034908381818185875af1925050503d80600081146104aa576040519150601f19603f3d011682016040523d82523d6000602084013e6104af565b606091505b50509050806104f25760405162461bcd60e51b815260206004820152600f60248201526e151c985b9cd9995c8819985a5b1959608a1b6044820152606401610375565b6104fc33836105fd565b5050565b6000336102eb81858561059e565b6001600160a01b03918216600090815260016020908152604080832093909416825291909152205490565b6105468383836001610633565b505050565b6000610557848461050e565b90506000198114610598578181101561058957828183604051637dc7a0d960e11b8152600401610375939291906109f4565b61059884848484036000610633565b50505050565b6001600160a01b0383166105c8576000604051634b637e8f60e11b8152600401610375919061081f565b6001600160a01b0382166105f257600060405163ec442f0560e01b8152600401610375919061081f565b610546838383610708565b6001600160a01b03821661062757600060405163ec442f0560e01b8152600401610375919061081f565b6104fc60008383610708565b6001600160a01b03841661065d57600060405163e602df0560e01b8152600401610375919061081f565b6001600160a01b038316610687576000604051634a1406b160e11b8152600401610375919061081f565b6001600160a01b038085166000908152600160209081526040808320938716835292905220829055801561059857826001600160a01b0316846001600160a01b03167f8c5be1e5ebec7d5bd14f71427d1e84f3dd0314c0f7b2291e5b200ac8c7c3b925846040516106fa91815260200190565b60405180910390a350505050565b6001600160a01b0383166107335780600260008282546107289190610a15565b909155506107929050565b6001600160a01b038316600090815260208190526040902054818110156107735783818360405163391434e360e21b8152600401610375939291906109f4565b6001600160a01b03841660009081526020819052604090209082900390555b6001600160a01b0382166107ae576002805482900390556107cd565b6001600160a01b03821660009081526020819052604090208054820190555b816001600160a01b0316836001600160a01b03167fddf252ad1be2c89b69c2b068fc378daa952ba7f163c4a11628f55a4df523b3ef8360405161081291815260200190565b60405180910390a3505050565b6001600160a01b0391909116815260200190565b600060208083528351808285015260005b8181101561086057858101830151858201604001528201610844565b506000604082860101526040601f19601f8301168501019250505092915050565b80356001600160a01b038116811461089857600080fd5b919050565b600080604083850312156108b057600080fd5b6108b983610881565b946020939093013593505050565b6000806000606084860312156108dc57600080fd5b6108e584610881565b92506108f360208501610881565b9150604084013590509250925092565b60006020828403121561091557600080fd5b61091e82610881565b9392505050565b6000806040838503121561093857600080fd5b61094183610881565b915061094f60208401610881565b90509250929050565b600181811c9082168061096c57607f821691505b60208210810361098c57634e487b7160e01b600052602260045260246000fd5b50919050565b634e487b7160e01b600052601160045260246000fd5b80820281158282048414176102f1576102f1610992565b6000826109dc57634e487b7160e01b600052601260045260246000fd5b500490565b818103818111156102f1576102f1610992565b6001600160a01b039390931683526020830191909152604082015260600190565b808201808211156102f1576102f161099256fea2646970667358221220f3daa4a9c85a4dc57580b4c2ad36aa07d27b32aa26580f7c32da5e643092e01264736f6c63430008140033a2646970667358221220b9f97ad0b260d79e5fe1aa559b72b6802025665fa0098ca778e79650dd6d0d1764736f6c63430008140033",
  "linkReferences": {},
  "deployedLinkReferences": {}
}